:020000040800F2
:10000000603D002099010008FF2A0008F92400083B
:10001000FD2A000879060008493A0008000000009F
:1000200000000000000000000000000001010008C6
:10003000B506000800000000450100081D36000854
:10004000B3010008B3010008B3010008B3010008C0
:10005000B3010008B3010008B3010008B3010008B0
:10006000B3010008B3010008B30100087D060008D1
:10007000B3010008B3010008B3010008B301000890
:10008000B3010008B3010008B3010008B301000880
:10009000B3010008B3010008B3010008B301000870
:1000A000B3010008B3010008B3010008B301000860
:1000B000B3010008B3010008B5360008B301000819
:1000C000B3010008B3010008B3010008B301000840
:1000D000B3010008B30100083D3A0008B30100086D
:1000E000B3010008B3010008B3010008DFF80CD029
:1000F00000F00CFA0048004755400008603D002021
:10010000224B19680868B0E8F00F80F30988BFF344
:100110006F8F4FF0000080F311884EF00D0E704786
:100120000000000006480068006880F3088862B696
:1001300061B6BFF34F8FBFF36F8F00DF00BF00BF0B
:1001400008ED00E0EFF30980BFF36F8F0F4B1A68E3
:1001500020E9F00F106008B54FF0500080F31188CF
:10016000BFF34F8FBFF36F8F05F0B0FC4FF000006F
:1001700080F31188BDE8084019680868B0E8F00FFE
:1001800080F30988BFF36F8F704700BF64000020C1
:10019000EFF3058070470000064880470648004797
:1001A000FEE7FEE7FEE7FEE7FEE7FEE7FEE7FEE727
:1001B000FEE7FEE7B1360008ED00000840EA010363
:1001C0009B0703D009E008C9121F08C0042AFAD20D
:1001D00003E011F8013B00F8013B521EF9D27047D1
:1001E000D2B201E000F8012B491EFBD27047002279
:1001F000F6E710B513460A4604461946FFF7F0FF26
:10020000204610BD30B505462A460B4612F8010BB4
:1002100013F8014B08B1A042F8D01CB1002802D05D
:100220006D1CF1E7284630BD421C10F8011B002967
:10023000FBD1801A7047F0B480EA0102D40F42006B
:10024000B2EB410F02D20246084611464A0042D0A4
:10025000C30DDDB2C1F3C752AD1A202D35DAC1F39B
:10026000160141F4000204B15242C5F1200602FA1F
:1002700006F12A411044B3EBD05F23D0C4B1012D65
:10028000A0EBC35009DCF0BC4FF0004202EAC352BD
:10029000DBB200F5000000F0CEB8400000F1807045
:1002A00000EBC350A0F1807040EAD170490009E032
:1002B000490841EAC071A0EBC35000F500004008B6
:1002C00000EBC350F0BC00F0ADB86142012202EB7C
:1002D0004101001BF6E7F0BC704781F00041AAE73E
:1002E00080F00040A7E780EA010210B502F0004369
:1002F000400022D04A001FD0010E01EB1261C0F372
:100300005600C2F3560240F4000042F40002A0FB83
:10031000022000047F39140400D0401C50EA12402F
:1003200001D44000491EC2B20C0604EBD010401CA0
:100330004008802A02D003E0002010BD20F0010018
:10034000002900DA0020184310BD30B480EA010211
:1003500002F0004530F0004221F0004013D090B18F
:10036000C30DD40DC2F31601C0F31600E41A41F414
:10037000000140F400027D34914201D3641C00E08E
:100380004900002C02DA30BC002070474FF4000016
:100390000023914201D3891A034340084FEA4101E7
:1003A000F7D151B1914202D14FF0004105E002D2A4
:1003B0004FF0010101E06FF0010103EBC45028444C
:1003C00030BC00F02FB896230022114600F033B85D
:1003D00020F00040C10DC0F3160040F400007F295A
:1003E00001DA00207047962903DCC1F19601C8406C
:1003F000704796398840704730B50B46014600205B
:100400002022012409E021FA02F59D4205D303FAD6
:1004100002F5491B04FA02F52844151EA2F1010257
:10042000F1DC30BD0029A8BF7047401C490008BF5F
:1004300020F00100704710B4B0FA80FC00FA0CF014
:1004400050EA010404BF10BC704749B1CCF120044C
:1004500021FA04F411FA0CF118BF012121430843D9
:10046000A3EB0C01CB1D4FEA00614FEA102042BF05
:10047000002010BC704700EBC35010440029A4BFFB
:1004800010BC7047401C490008BF20F0010010BCA0
:100490007047420005D0C0F3C7525242914201DC7E
:1004A0000020704700EBC1507047C10F80EAE07038
:1004B0000844CA0796230021FFF7BDBF10B500F01E
:1004C000004420F00040C20DC0F3160040F40000CC
:1004D0007F2A07DA7D2A00DA7D22763A00FA02F1D5
:1004E000002008E0962A09DCA2F1760100FA01F169
:1004F000C2F19602D040FFF795FF01E0963A904096
:10050000002C00D0404210BD00207047064C074D23
:1005100006E0E06840F0010394E8070098471034D3
:10052000AC42F6D3FFF7E6FDC8730008E873000895
:1005300070B5044620688168C943C90716D181682F
:1005400021F00101816000F03FFE054609E000F066
:100550003BFE401B022804D920688068C043C007C6
:1005600006D020688068C043C007F0D0002070BD6E
:10057000A06A40F01000A062E06A40F00100E06272
:10058000012070BD10B50146486A826A12F0500F12
:1005900005D0006A026BBDE8104008461047816A2A
:1005A00041F40071816201688968C1F34241072901
:1005B0000CD1017B51B9816A21F480718162816A19
:1005C000C90403D4816A41F00101816200F0EAF9B3
:1005D00010BD10B5406A816A41F040018162C16A74
:1005E00041F00401C16200F0DFF910BD10B5406AAE
:1005F00000F0D9F910BD0000F8B5044600260096B9
:1006000020688168C943C9072FD0816841F0010182
:100610008160174817490068B0FBF1F0009002E0D4
:100620000098401E009000980028F9D100F0CCFD01
:10063000054615E000F0C8FD401B022810D92068CF
:100640008068C043C0070BD0A06A40F01000A062D1
:10065000E06A40F00100E06284F824600120F8BD07
:1006600020688068C043C007E4D10020F8BD0000C6
:100670006000002040420F00FEE70000014800F04B
:1006800069BB00001C01002030B590F840500124E7
:10069000AC40C56B6C60046863604368102B04D089
:1006A000036899600068C26030BD03689A600068A2
:1006B000C16030BD70470000004870478C020020C8
:1006C00001484068704700004C00002000F012B85C
:1006D00010B504462046FFF7A7FD82B20448214624
:1006E0004FF47A734068BDE8104001F0A3BE0000EB
:1006F0004C000020064B5988B1F5FF7F06D84A1CF4
:1007000092B25A80034B585400209854704700000E
:100710004C0000208C02002072B6FEE710B505499F
:10072000002048804FF400710348FFF760FD00206F
:1007300010BD00004C0000208C02002000B589B0E4
:1007400005A101A803F092F94FF47A7206A101A85D
:1007500000F020F809B000BD41542B4357444843F2
:10076000503D312C310D0A004F4B000010B50749A8
:10077000486000224A80064A0168914203D1012262
:10078000024901F033FE002010BD00004C000020A3
:100790000044004070B505460E461446FFF7BEFF04
:1007A0004DB11449496831B12846FFF791FF00F077
:1007B0000BFD054617E0022070BD31460E48FFF7DD
:1007C00021FD08B1002070BD0CA10B48FFF71AFDF8
:1007D00020B90CA10848FFF715FD08B1022070BD33
:1007E0000A2000F0D7FB00F0EFFC401BA042E4D34E
:1007F000012070BD4C0000208C0200204552524F59
:10080000520000004641494C0000000000B591B084
:10081000024606A101A803F029F94FF4FA6207A1E4
:1008200001A8FFF7B7FF11B000BD000041542B43F2
:10083000574D4F44453D25640D0A00004F4B0000C5
:1008400000B591B006A309A20AA101A803F00EF910
:1008500043F698220DA101A8FFF79CFF11B000BD3F
:10086000313233343536373800000000383236360E
:100870000000000041542B43574A41503D2225734C
:10088000222C222573220D0A0000000057494649F8
:1008900020434F4E4E45435445440000F8B50023D5
:1008A0000025009590F82420012A12D0012280F81A
:1008B00024204A681F26072A0DD20468676B521E3F
:1008C00002EB82029640B7430E6896403743676357
:1008D0001AE00220F8BD0D2A0BD20468276BD21F44
:1008E00002EB82029640B7430E6896403743276377
:1008F0000AE00468E76A0D3A02EB82029640B743C9
:100900000E6896403743E7620A6807260A2A0BD327
:100910000468E7680A3A02EB42029640B7438E68E1
:1009200096403743E76009E00468276902EB42021A
:100930009640B7438E689640374327610A68102A6D
:1009400001D0112A23D1144C0268A2421AD1946812
:1009500024021CD4946844F40004946009681029AB
:1009600015D10E490E4A0968B1FBF2F101EB810184
:100970004900009102E00099491E00910099002968
:10098000F9D104E0816A41F020018162012380F8FD
:1009900024501846F8BD00000024014060000020EB
:1009A00040420F0070477047704700002DE9F0414A
:1009B000044600270025002C03D0A06A002618B1A9
:1009C00008E00120BDE8F081E66284F8246020465A
:1009D00000F078F82046FFF7ABFDA16AC90600D405
:1009E00028B1A06A40F01000A0620120EAE7A16AE5
:1009F00021F4885141F00201A1626268E169237B20
:100A00000A4347EA43010A43A1684FF48077B94299
:100A100008D0012906D0002194F814C0BCF1010FC0
:100A200002D00AE03946F7E7F3B1A36A43F02003A6
:100A3000A362E36A43F00103E3622368D3F804C0CE
:100A40002CF4694C4CEA010CC3F804C021688B6893
:100A5000DFF868C003EA0C0313438B60A168B94256
:100A600009D0012907D009E0A3695B1E41EA43319F
:100A700041F40061E1E7218A491E0D052168CB6A36
:100A800023F470032B43CB62216889680C4B194017
:100A9000914207D1E662A16A21F0020141F0010111
:100AA000A1628FE7A06A20F0020040F01000A0626F
:100AB000E06A40F00100E062012083E7FDF7E1FF1A
:100AC000FE0E1FFF70B586B0064600240294039404
:100AD000049405941A49306888422ED119498869CE
:100AE00040F400708861886900F4007001908869A2
:100AF00040F004008861886900F004000190E02063
:100B000002900320039002A90F4800F055FA104DFF
:100B10000E4828606C60AC608020E860400028616E
:100B2000800068612020A861EC61284600F0C6F9C9
:100B300008B1FFF7F1FD35626E6206B070BD0000CE
:100B4000002401400010024000080140080002405B
:100B50001C0100202DE9F047044689469246DFF843
:100B6000008120683F4F08F10406404501D0B8429B
:100B700007D1306810F4702F03D001252846BDE856
:100B8000F08794F8240001280BD0012084F8240079
:100B90002046FFF731FD0546002125B184F82410D9
:100BA000ECE70220EBE7A06A40F60162904340F4D4
:100BB0008070A0622068B84218D1326812F4702F99
:100BC00014D0A26A42F48012A2623068400505D5B2
:100BD000A06A20F4005040F48050A062A06AC004D3
:100BE00012D5E06A20F00600E0620EE0A26A22F46C
:100BF0008012A26240684005F0D5A06A20F400503F
:100C000040F48050A062E9E7E16284F82410216A90
:100C100015488862216A1548C862216A1448086329
:100C200021686FF0020008602068816841F48071DB
:100C30008160216853464C314A46206A00F070F9C1
:100C400020688168C1F34241072904D0816841F4DA
:100C50008011816092E7816841F4A00181608DE795
:100C6000002401400028014085050008ED0500082A
:100C7000D305000810B590F821100022022905D0F4
:100C80000421816380F82020012010BD01680B68D9
:100C900023F00E030B6001680B6823F001030B6067
:100CA00090F84030C46B012101FA03F3636080F8CF
:100CB000211080F82020104610BD000010B500243F
:100CC00090F82110022903D00421816301243DE022
:100CD00001680A6822F00E020A6001680A6822F0C0
:100CE00001020A601A4A0168914201D1012121E002
:100CF000174A1432914201D110211BE0144A2832C4
:100D0000914201D1891515E0114A3C32914201D13D
:100D100089140FE00E4A5032914202D14FF48031D3
:100D200008E00B4A6432914202D14FF4801101E095
:100D30004FF08071064A083A5160012180F8211075
:100D4000002180F82010416B01B18847204610BD7A
:100D5000080002402DE9F05FC16B0A6801680B686A
:100D6000046C4FF0040A0AFA04FA4E4D4E4E4F4FEF
:100D7000DFF83CC1DFF83C81DFF83C911AEA020F52
:100D800031D05FEA437A2ED50A68920603D40A6806
:100D900022F004020A600168A94201D1042119E08D
:100DA000B14201D1402115E0B94202D14FF4806136
:100DB00010E0614502D14FF480410BE0414502D182
:100DC0004FF4802106E0494502D14FF4800101E053
:100DD0004FF08061334A083A5160C16A00295FD000
:100DE000BDE8F05F08474FF0020E0EFA04FE1EEA5F
:100DF000020F4FF0000A4FF0010B35D05FEA837EFF
:100E000032D50A68920605D40A6822F00A020A60FE
:100E100080F821B00168A94201D1022119E0B14254
:100E200001D1202115E0B94202D14FF4007110E048
:100E3000614502D14FF400510BE0414502D14FF41E
:100E4000003106E0494502D14FF4001101E04FF0B6
:100E50000071144A083A516080F820A0816A002984
:100E60001ED0BDE8F05F08470825A540154217D001
:100E70001A0715D50A6822F00E020A6090F8401091
:100E8000C26B0BFA01F15160C0F838B080F821B0A4
:100E900080F820A0016B002902D0BDE8F05F084770
:100EA000BDE8F09F080002401C00024030000240F4
:100EB00044000240580002406C00024030B5002857
:100EC00027D0001D144A50F8041C14230A44B2FB16
:100ED000F3F29200C263114A8263022242770A68E7
:100EE00043F6F0739A43D0E900342343D0E9024536
:100EF0002C432343046923434469234384692343E4
:100F000013430B60002141630122427701770020E7
:100F100030BD012030BD0000F8FFFDBF00000240E1
:100F200070B50446002594F8200001280CD001205B
:100F300084F8200094F821600020012E06D084F867
:100F400020000225284670BD022070BD022684F8CC
:100F50002160A0632068066826F00106066020462E
:100F6000FFF792FBE06A28B12068016841F00E01AA
:100F7000016009E02068016821F004010160206837
:100F8000016841F00A0101602068016841F0010137
:100F90000160D7E770B5044600F016F90546601CFD
:100FA00002D004480078044400F00EF9401BA0422F
:100FB000FAD370BD540000202DE9F84F002400231F
:100FC000DFF8C4914FF00F08A9F1040B09F1040AEE
:100FD000ABF1040ED1E00127A7403A40BA4275D1E7
:100FE000DFF8A8C14D68A5EB0C0665452BD00DDCDC
:100FF000032D34D005DC35B3012D19D0022D2FD1AE
:101000001BE0112D16D0122D2AD119E0B6F5881F3C
:1010100019D006DCB6F5803F15D0B6F5801F1FD17C
:1010200011E0B6F5001F0ED0B6F5041F18D10AE086
:10103000CB6815E0CB681B1D12E0CB6808330FE0CE
:10104000CB680C330CE08B6823B1012B04D0082350
:10105000476105E0042303E00823076100E0002363
:10106000FF2A01D8054601E000F1040502D84FEA45
:10107000840603E0A4F108064FEA86062F6808FA02
:1010800006FC27EA0C0703FA06F647EA06072F6074
:101090004D68ED0070D53E4DAE6946F00106AE617B
:1010A000AD6905F0010500953A4D24F00306771966
:1010B000BE68A5072D0F08FA05FC26EA0C06DFF826
:1010C000D8C0604503D14FF0000C17E054E0DFF8C2
:1010D000CCC0604502D14FF0010C0FE0DFF8C0C07A
:1010E000604502D14FF0020C08E0DFF8B8C060455F
:1010F00002D14FF0030C01E04FF0040C0CFA05FC98
:101100004CEA060CC7F808C04D68ED0205D5D9F8C1
:1011100000501543C9F8005004E0D9F80050954339
:10112000C9F800504D68AD0205D5DAF800501543F6
:10113000CAF8005004E0DAF800509543CAF80050AD
:101140004D68AD0305D5DBF800501543CBF80050D2
:1011500004E0DBF800509543CBF800504D68ED03F8
:1011600005D5DEF800501543CEF8005004E0DEF857
:1011700000509543CEF80050641C0A6832FA04F51A
:101180007FF429AFBDE8F88F08040140000011107A
:10119000001002400000014000080140000C014026
:1011A0000010014000140140C26821EA02030A4015
:1011B00043EA024101617047002A01D00161704792
:1011C0000904016170470000014880687047000011
:1011D0005400002070B50446002C04D094F83D0063
:1011E000002510B106E0012070BD84F83C50204677
:1011F00000F05EF9242084F83D002068016821F0A9
:10120000010101602068016841F40041016020682B
:10121000016821F40041016000F026FC4F4B616839
:10122000994203D84E49884203D304E04D4988428D
:1012300001D2012070BD4C49B0FBF1F12268566823
:1012400026F03F060E43566062689A4201D8491C58
:1012500007E04FF4967251434FF47A72B1FBF2F10A
:10126000491C2268166A26F03F0631431162616804
:10127000994210D84900401EB0FBF1F2521CC2F353
:101280000B02042A01D2042022E0B0FBF1F0401C42
:10129000C0F30B001CE0A268F2B301EBC10303EB47
:1012A0000116431EB3FBF6F35B1C43F480431B059E
:1012B00049D092B301EBC10202EB0111401EB0FB19
:1012C000F1F0401CC0F30B0040F4804040F40040BB
:1012D0002168CA694CF6FF739A431043C861D4E988
:1012E000071001432068026822F0C0021143016028
:1012F000D4E9030101432068826848F2FF339A432E
:1013000011438160D4E9051001432068C26822F0CE
:10131000FF021143C16001E00EE016E020680168A1
:1013200041F0010101602564202084F83D0025631F
:1013300084F83E50002070BD01EB4106431EB3FB14
:10134000F6F35B1CB3E70120C2E701EB4101401E4D
:10135000B0FBF1F0401CC0F30B00B7E7A086010022
:1013600080841E0000093D0040420F002DE9FF4F20
:1013700083B00446DDE911988A469346109DFFF735
:1013800023FF064694F83D00202803D0022007B032
:10139000BDE8F08F1923012243492046009601F051
:1013A00051F908B10220F2E794F83C00012807D077
:1013B000012084F83C0020680168C90702D005E0DC
:1013C0000220E4E7016841F0010101602068016842
:1013D00021F400610160212084F83D00402084F860
:1013E0003E00002727646562A4F82A90608D20855E
:1013F0002E48E062CDE900865A4651462046069BBB
:1014000001F092F880B30120C1E732464146204600
:1014100001F0D2F948B1206C042804D12068016899
:1014200041F4007101600120B1E7606A2168007831
:101430000861656A6D1C6562208D401E80B2208542
:10144000618D491E618523685969C94349070BD4D9
:1014500050B128781861606A401C6062208D401E7F
:101460002085608D401E6085208D0028CDD13246BC
:101470004146204601F0BAF848B1206C042804D156
:101480002068016841F40071016001207FE71F348A
:1014900054F81F0C016841F4007101602020A0770E
:1014A000E7776777002072E7020010000000FFFF77
:1014B00010B586B000210291039104910591006856
:1014C0001349884222D1134CA06940F00800A06162
:1014D000A06900F0080001904FF4407002901220C3
:1014E00003900320059002A90B48FFF765FD0B4907
:1014F000486840F0E06040F002004860E06940F475
:101500000010E061E06900F40010019006B010BD29
:101510000054004000100240000C01400000014057
:1015200017B583B00A466421012305ACCDE9004319
:10153000029101460448FFF719FF10B1012006B0DF
:1015400010BD0020FBE7000038020020024881683F
:1015500002781144816070475400002010B507489C
:10156000016841F010010160032000F0A7F801209C
:1015700000F006F800F050F8002010BD00200240F6
:1015800030B587B005461F48C16941F00401C1610B
:10159000C06900F00400009001A902A800F040FA20
:1015A0000598B0B100F060FA40001749B0FBF1F1C6
:1015B000491E1748154A026040F2E732C260416096
:1015C000002202618260826100F058FC04461CB176
:1015D00015E000F049FAE8E70D4800F075FC044614
:1015E0006CB91E2000F03CF8102D07D200222946CD
:1015F0001E2000F043F80748056000E0012407B012
:10160000204630BD0010024040420F00000800405C
:10161000F00100205800002008B50F48816941F012
:1016200001018161816901F001010091C16941F00D
:101630008051C161C06900F08050009000220F21EC
:10164000901E00F01BF80549486820F0E06040F06B
:101650000070486008BD000000100240000001401A
:10166000002809DB00F01F020121914040098000A1
:1016700000F1E020C0F8001170470000F0B40D4602
:101680000D4B1B68C3F30223C3F10704042C00D9DC
:101690000424191D072901D2002300E0DB1E0126C6
:1016A00006FA04F1491E294099409E40761E1640D4
:1016B0003143F0BC02F001BA0CED00E000F007018C
:1016C000054A10684FF6FF03184040EA012003491D
:1016D00008431060704700000CED00E00000FA05C0
:1016E00010B501F0B3F92C48FFF7E2FE6420FFF7D4
:1016F00051FCAE2000F0F6FE002000F0F3FE1020BA
:1017000000F0F0FE402000F0EDFE812000F0EAFE47
:10171000FF2000F0E7FEA42000F0E4FEA62000F089
:10172000E1FEA82000F0DEFE3F2000F0DBFED3202B
:1017300000F0D8FE002000F0D5FED52000F0D2FE4B
:10174000802000F0CFFED92000F0CCFEF12000F088
:10175000C9FEDA2000F0C6FE122000F0C3FEDB2036
:1017600000F0C0FE402000F0BDFE8D2000F0BAFE6B
:10177000142000F0B7FE202000F0B4FE022000F09C
:10178000B1FEA12000F0AEFEC82000F0ABFEBDE827
:101790001040AF2000F0A6BE3802002010B504466D
:1017A000B031C8B200F09EFE102040EA141000F0E4
:1017B00099FE04F00F00BDE8104000F093BE000059
:1017C0002DE9F8430446DFF8F8802078C0075FD0A1
:1017D0000027D8F81C00C0000BD4D8F81C0040F03B
:1017E0008050C8F81C00D8F81C0000F08050009011
:1017F0000127344D2868C00512D4286840F4807051
:101800002860FFF7E1FC064607E0FFF7DDFC801BE0
:10181000642802D90320BDE8F8832868C005F4D500
:10182000D8F8200000F4407010B3A18801F4407192
:1018300081421DD0D8F8200020F4407022490122B6
:101840000A6000220A60C8F82000C00710D0FFF725
:10185000BBFC054641F2883606E0FFF7B5FC401BAD
:10186000B04201D90320D6E7D8F820008007F4D58C
:10187000D8F82000616820F440700843C8F82000C0
:10188000012F05D1D8F81C0020F08050C8F81C00AA
:101890002078800707D5D8F80400A16820F44040DC
:1018A0000843C8F804002078C00607D5D8F804001B
:1018B000E16820F480000843C8F804000020AAE78B
:1018C0000010024000700040400442422DE9F04701
:1018D00004460D46002C17D0DFF83081D8F8000000
:1018E00000F00700A84211D2D8F8000020F007004D
:1018F0002843C8F80000D8F8000000F00700A8420C
:1019000004D00120BDE8F0870120FBE72068404EAD
:10191000810712D5400703D5706840F4E06070601D
:101920002078000703D5706840F4605070607068DC
:10193000A16820F0F000084370602078C0072CD028
:101940006068012806D0022809D0316889070BD4C5
:101950000120D7E73168890306D40120D2E7316836
:10196000890101D40120CDE7716821F00301014311
:101970007160FFF729FC074641F2883906E0FFF75E
:1019800023FCC01B484501D90320BBE77068616890
:1019900000F00C00B0EB810FF1D1D8F8000000F09E
:1019A0000700A8420ED9D8F8000020F0070028430D
:1019B000C8F80000D8F8000000F00700A84201D0E5
:1019C00001209FE72078400705D57068E16820F482
:1019D000E060084370602078000706D570682169D0
:1019E00020F4605040EAC100706000F05DF871685A
:1019F000084AC1F30311515CC84007490860074811
:101A00000068FFF7BDFD00207CE7000000200240D9
:101A100000100240F670000860000020580000200E
:101A20000F2202600B4A536803F0030343605368BC
:101A300003F0F0038360536803F4E063C36052680B
:101A400002F46052D20802610348006800F0070007
:101A50000860704700100240002002400148006802
:101A6000704700006000002000B5FFF7F7FF044951
:101A70004968044AC1F30221515CC84000BD00001E
:101A8000001002400671000800B5FFF7E7FF0449A7
:101A90004968044AC1F3C221515CC84000BD00003E
:101AA00000100240067100080E4B59680E4801F004
:101AB0000C02042A11D0082A0FD10C48C1F383422A
:101AC000805CC9030AD55968084AC1F34041921E97
:101AD000515C054A5043B0FBF1F07047044948435C
:101AE000704700000010024000127A00E670000803
:101AF00000093D002DE9F84F0446002C0ED0207857
:101B0000D94DC0075ED06868C0F3810001280BD0B2
:101B10006868C0F38100022803D00CE00120BDE812
:101B2000F88F6868C00306D5286880034AD56068C6
:101B3000A8BB0120F3E76068B0F5803F11D0A8B1E1
:101B4000B0F5A02F1BD0286820F4803028602868CA
:101B500020F480202860606830B3FFF735FB06462C
:101B60001EE0286840F480302860F4E7286820F4FC
:101B700080302860286820F480202860EBE72868FF
:101B800040F480202860286840F480302860E2E734
:101B9000FFF71AFB801B642802D90320BFE711E07E
:101BA00028688003F4D50DE0FFF70EFB064606E03B
:101BB000FFF70AFB801B642801D90320AFE72868E0
:101BC0008003F5D42078DFF8A48280074FF0010A63
:101BD0004FF0000945D5686810F00C0F07D0686811
:101BE000C0F38100022812D16868C0030FD42868AE
:101BF000800704D52069012801D001208FE72868DB
:101C0000616920F0F80040EAC100286029E02069FD
:101C1000B8B1C8F800A0FFF7D7FA064606E0FFF70C
:101C2000D3FA801B022801D9032078E728688007AF
:101C3000F5D52868616920F0F80040EAC100286005
:101C40000FE0C8F80090FFF7BFFA064606E0FFF77E
:101C5000BBFA801B022801D9032060E728688007AF
:101C6000F5D42078000726D58148A16999B1C0F83C
:101C700000A0FFF7A9FA064606E0FFF7A5FA801BC9
:101C8000022801D903204AE7686A8007F5D50120B8
:101C900001F07CF90FE0C0F80090FFF795FA0646D6
:101CA00006E0FFF791FA801B022801D9032036E7EE
:101CB000686A8007F5D42078400773D50026E86964
:101CC000C00008D4E86940F08050E861E86900F09D
:101CD000805000900126DFF89CB1DBF80000C005C1
:101CE00014D4DBF8000040F48070CBF80000FFF75C
:101CF0006BFA074606E0FFF767FAC01B642801D9B4
:101D000003200CE7DBF80000C005F4D5E0680128EB
:101D100012D0B0B105281DD0286A20F00100286239
:101D2000286A20F004002862E06841F2883B28B36A
:101D3000FFF74AFA07461DE0286A40F001002862D2
:101D4000F2E7286A20F001002862286A20F00400E7
:101D50002862E9E7286A40F004002862286A40F017
:101D600001002862E0E7FFF72FFAC01B584501D9B0
:101D70000320D4E6286A8007F5D50DE0FFF724FAA2
:101D8000074606E0FFF720FAC01B584501D903209B
:101D9000C5E6286A8007F5D4012E03D1E86920F052
:101DA0008050E861E069A0B36968C1F3810102294C
:101DB00046D0022805D0C8F86090FFF705FA04461F
:101DC0003AE0C8F86090FFF7FFF9064606E0FFF733
:101DD000FBF9801B022801D90320A0E628688001B6
:101DE000F5D4206AB0F5803F05D16868A16820F479
:101DF000003008436860D4E908010843696821F4A9
:101E0000741108436860C8F860A0FFF7DDF9044664
:101E100007E026E0FFF7D8F9001B022801D90320CC
:101E20007DE628688001F5D51BE0FFF7CDF9001BA2
:101E3000022801D9032072E628688001F5D410E059
:101E400001280CD06868226A00F48031914204D1E4
:101E5000616A00F47010884203D001205FE601201F
:101E60005DE600205BE600000010024000004242F8
:101E700080044242007000407047704710B504462D
:101E8000002C03D094F83D0010B107E0012010BDF4
:101E9000002084F83C00204600F015F8022084F869
:101EA0003D00211D206801F00BFC01203D346072D3
:101EB0006070A070E07020716071A071E07120729C
:101EC0002070002010BD704790F83D10012901D00E
:101ED00001207047022180F83D100168CA6842F075
:101EE0000102CA6000680E49884208D0B0F1804FF4
:101EF00005D00C49884202D00B49884209D181683B
:101F000001F00701062908D0016841F001010160D4
:101F100003E0016841F0010101600020704700000A
:101F2000002C0140000400400008004070472DE9EB
:101F3000F04104462068C56806694FF00007B10704
:101F400014D5A90712D5F91E016101202077206858
:101F50008069800703D02046FFF7E8FF05E02046B0
:101F600000F081F8204600F07FF82777700717D53A
:101F7000680715D521686FF00400086102202077FA
:101F80002068806910F4407F03D02046FFF7CEFF21
:101F900005E0204600F067F8204600F065F8277756
:101FA000300716D5280714D521686FF0080008619E
:101FB000042020772068C069800703D02046FFF7FF
:101FC000B5FF05E0204600F04EF8204600F04CF842
:101FD0002777F00617D5E80615D521686FF01000B1
:101FE0000861082020772068C06910F4407F03D082
:101FF0002046FFF79BFF05E0204600F034F820461E
:1020000000F032F82777F00708D0E80706D02168FB
:102010006FF001000861204600F028F8300608D56E
:10202000280606D521686FF0800008612046FFF77A
:1020300023FF700608D5680606D521686FF04000BA
:102040000861204600F01CF8B0060AD5A80608D59D
:1020500021686FF0200008612046BDE8F041FFF7DD
:102060000CBFBDE8F081704770470000006803496D
:10207000884201D1FFF76ABA7047000000080040AB
:102080007047704770470000F8B504462268106832
:10209000D168536900F00F06002E08D1850606D5D9
:1020A0008D0604D52046BDE8F84001F081BB00252F
:1020B000002E66D003F0010601F49077374360D01C
:1020C000C20705D0CA0503D5626C42F00102626402
:1020D000420705D5DA0703D0626C42F0020262645F
:1020E000820705D5DA0703D0626C42F0040262640D
:1020F000020707D501F02002324303D0626C42F0A0
:1021000008026264626C002A31D0800604D5880619
:1021100002D5204601F04CFB20684069C0F38010D6
:10212000616C090700D438B3204601F00DFB20682C
:10213000406940061CD52068143050E8001F21F08B
:10214000400140E80012002AF5D1E06B60B1594926
:102150004163E06BFEF7B2FD002808D0E06B416BF5
:1021600001B0BDE8F04008472046FFF78BFFF8BDFF
:102170002046FFF787FFF8BD2046FFF783FF656421
:10218000F8BD236B012B7DD1C3067BD5CB067ED555
:1021900010685068009050694FF0200340064FF0DF
:1021A000020643D5E16B0868406880B20028E7D09A
:1021B000A28D8242E4D9E085886920282DD020684C
:1021C0000C3050E8001F21F4807140E80012002A12
:1021D000F5D12068143050E8001F21F0010140E8DB
:1021E0000012002AF5D12068143050E8001F21F0B9
:1021F000400140E80012002AF5D184F842302563FE
:1022000020680C3050E8001F21F0100140E8001257
:10221000002AF5D1E06BFEF72DFD6663A08DE18D00
:10222000401A81B22046FFF72CFFF8BDA08DE18D4A
:10223000401A81B2E08D0028F7D00029F5D020683F
:102240000C3050E8002F22F4907240E80027002F55
:10225000F5D12068143050E8002F22F0010240E848
:102260000027002FF5D184F84230256320680C3018
:1022700050E8002F22F0100240E80023002BF5D197
:10228000666300E003E02046FFF7FBFEF8BD0206B0
:1022900006D50A0604D52046BDE8F84001F064BB27
:1022A0004006F3D54806F1D52046BDE8F84001F0D8
:1022B00072BA00003937000870B50446002C04D00B
:1022C00094F84100002510B106E0012070BD84F8AB
:1022D0004050204600F024F8242084F84100206873
:1022E000C16821F40051C160204601F0C5FA2068A0
:1022F000016921F4904101612068416921F02A01BE
:1023000041612068C16841F40051C16065642020CA
:1023100084F8410084F842006563002070BD00002D
:1023200070B586B0002402940394049405942B4E57
:1023300002682B49022003232A4DB24221D18A6927
:1023400042F480428A618A6902F4804201928A6979
:1023500042F004028A61896901F0040101910102DD
:1023600002910390059302A92846FEF725FE291540
:1023700002910394049402A92846FEF71DFE06B0BC
:1023800070BD194EB242FAD1CA6942F40032CA6134
:10239000CA6902F4003201928A6942F004028A6139
:1023A000896901F0040101910421029103900593D0
:1023B00002A92846FEF700FE082102910394049426
:1023C00002A92846FEF7F8FD002206212620FFF785
:1023D00055F92620FFF744F9D1E700000038014005
:1023E00000100240000801400044004090F84230D4
:1023F000202B01D00220704721B11AB100230363C2
:1024000001F096BA0120704710B50068074988426C
:102410000BD107480078FEF759F9FEF751F9BDE8EE
:10242000104001220249FFF7E1BF10BD0044004007
:10243000000000202DE9F84304460E4615461F46CD
:1024400094F84100202802D00220BDE8F8837EB134
:1024500075B100206064212084F84100FEF7B4FECD
:102460008146A584E584A068B0F5805F02D003E0D2
:102470000120EAE7206920B1354600264FF0200808
:1024800015E00025FAE74B46002280212046009700
:1024900001F099FA18B184F841800320D5E7ADB175
:1024A000216815F8010B4860E08C401EE084E08C48
:1024B0000028E8D14B46002240212046009701F039
:1024C00082FA50B184F841800320BEE736F8020B4F
:1024D0002168C0F308004860E6E784F841800020E6
:1024E000B3E77047024600217820FFF719B802468B
:1024F00040217820FFF714B8FEE701684A69D2430B
:1025000052050FD46FF480624A61002140F8301FF9
:10251000202242738173026942F004020261017356
:1025200001207047002070472DE9F8430446DDE99B
:1025300008970D46164698462068016841F4807158
:1025400001604B4600224FF001112046009700F039
:1025500079F848B120680068C00502D54FF40070D2
:1025600020640320BDE8F883216805F0FE000861BF
:102570003B464A461C49204600F0BAF808B1012003
:10258000F0E720684169806900903A464946204654
:1025900000F012F948B1206C042804D120680168C9
:1025A00041F4007101600120DCE7F5B2B8F1010FE0
:1025B0000CD02168300A08613A464946204600F0AE
:1025C000FBF868B1206C042803D007E0206805619F
:1025D00008E02068016841F4007101600120C1E752
:1025E000206805610020BDE70200010070B50446C7
:1025F0000D4616461FE02046FFF77FFF08B1012079
:1026000070BD681C17D0FEF7DFFD801BA84200D804
:102610008DB920684069C04340070CD5002044F8BC
:10262000300F20216173A073216941F020012161E5
:102630002073012070BD20684069C0434007DAD490
:10264000002070BD2DE9F0470446DDF820900D46CE
:1026500090461E46C5F307472FE0701C2DD0FEF7AD
:10266000B3FDA0EB0900B04200D836BB012F17D054
:102670002068806925EA00000004000C1BD00020BF
:1026800040451AD1002044F8300F20216173A07317
:10269000216941F02001216120730120BDE8F0870C
:1026A0002068406925EA00000004000C01D00020E9
:1026B000E6E70120E4E70120E2E7012F0BD02068E4
:1026C000806925EA00000004000C0FD0002040457E
:1026D000C3D00020E2E72068406925EA000000043A
:1026E000000C01D00020F2E70120F0E70120EEE726
:1026F0002DE9F04704460D46164698464FF000096E
:102700004FF0200AC5F3074743E020684069C04303
:10271000400517D42068016841F400710160216808
:102720006FF480604861C4F8309084F83DA084F86C
:102730003E90206C40F00400206484F83C9001201E
:10274000BDE8F087701C24D0FEF73EFDA0EB08002A
:10275000B04200D8EEB9012F14D02068806925EA74
:1027600000000004000C14D0C4F8309084F83DA0A0
:1027700084F83E90206C40F02000206484F83C9067
:102780000120DDE72068406925EA00000004000C14
:10279000EAD1012F08D02068806925EA00000004F2
:1027A000000CB2D10020CBE72068406925EA000088
:1027B0000004000CF6D0A8E770B504460D46164696
:1027C0001FE02046FFF799FE08B1012070BD681C8C
:1027D00017D0FEF7F9FC801BA84200D88DB92068FD
:1027E0004069C04300060CD5002044F8300F20217A
:1027F0006173A073216941F02001216120730120E0
:1028000070BD20684069C0430006DAD4002070BD66
:1028100070B5002800D1012040F6FF71884200D336
:10282000481EFDF7D0FD144D2946FDF75CFD134908
:10283000FDF78BFD044621462846FDF74EFD104965
:10284000FDF751FD2146FDF780FD01F061FA0446D8
:102850000C4801F05DFA2146FDF73FFD0A49FDF7FE
:1028600074FD0A4C0146204601F0C2FE2146BDE837
:102870007040FDF738BD00003333534000F07F4512
:1028800000401C4600606A463333333F000020415D
:10289000FEB500240094019402941B48194901607C
:1028A000891581600125057304754FF46021C161AC
:1028B000446003260661FEF779F808B1FDF72CFFA6
:1028C000052000900195029469460F48FDF7E6FF48
:1028D00008B1FDF721FF0620009002200190694613
:1028E0000948FDF7DBFF08B1FDF716FF0720009050
:1028F000019669460448FDF7D1FF002801D0FDF795
:102900000BFFFEBD00240140EC00002008B5054887
:10291000416941F001014161406900F0010000900E
:1029200008BD00000010024010B5002001F0DAFCE4
:10293000234CA060002001F0D5FCE060002001F0F5
:10294000D1FC20611F4A0021012001F06DFD606370
:102950001C4A0C21303A032001F020FCE062194AA5
:102960000C21183A032001F019FC2063164A0021BB
:10297000164801F0DFFD6061134A0021243214483B
:1029800001F0D8FDA061104A00214832114801F041
:10299000D1FDE0610B4A0021543A0F4801F0CAFD15
:1029A000A062094A00216C320C4801F0C3FD20628C
:1029B000044A0021783A0A4801F0BCFD606210BD6B
:1029C00004000020E46A0008DC6900085D300008AB
:1029D000B12F0008C53200082D3300086D33000800
:1029E0007530000810B586B0002004901548816944
:1029F00041F010018161816901F01001019181694B
:102A000041F020018161816901F02001019181691A
:102A100041F004018161806900F00400019003200D
:102A200002900120039002200590074C02A9204645
:102A3000FEF7C2FA012202212046FEF7BDFB06B0D6
:102A400010BD0000001002400008014010B50D4804
:102A50000B4901600C49416000218160C1604FF465
:102A60008042026141618161C1610162FEF7B2FB96
:102A7000002803D0BDE81040FDF74EBE10BD000099
:102A80000054004038020020801A060010B50C489F
:102A90000A4901604FF4E131416000218160C16069
:102AA00001610C2242618161C161FFF705FC0028D0
:102AB00003D0BDE81040FDF72FBE10BD0038014027
:102AC0006001002010B50C480A4901604FF4E13163
:102AD000416000218160C16001610C22426181611D
:102AE000C161FFF7E9FB002803D0BDE81040FDF706
:102AF00013BE10BD00440040A8010020FEE7FEE721
:102B000070B5002800D1012040F6FF71884200D343
:102B1000481EFDF758FC1C4D2946FDF7E4FB1B49F8
:102B2000FDF713FC044621462846FDF7D6FB184D59
:102B3000064629462046FDF7D6FB3146FDF705FC43
:102B40001449884200DA08461349884200DD0846E5
:102B50002946FDF7FAFB01F0B5F91049FDF7C3FB73
:102B60000F49FDF768FB01464FF07E50FDF7EDFB86
:102B70000C49FDF7B2FB0C49884200D908460B49C5
:102B8000884200DD084670BD3333534000F07F4576
:102B900000401C460000C842005043482CBB84390A
:102BA0000FCF5B3B339388430000A0C10000A042DD
:102BB00070B5002505F1B000C0B2FFF793FC00200E
:102BC000FFF790FC1020FFF78DFC00240020FFF79A
:102BD0008EFC641CE4B2802CF8D36D1CEDB2082D81
:102BE000E8D370BD0346012000E05843491E4A1C4B
:102BF000FBD170472DE9F0410F461546791E461E60
:102C0000C9B2F0B2FEF7CAFD00240C48203D00EB2B
:102C10000515285DFFF76BFC641C082CF9DBF0B28E
:102C20003946FEF7BBFD00242819007AFFF75FFC48
:102C3000641C082CF8DBBDE8F0810000F46A000891
:102C40002DE9F04781460F4690461E4600240A258E
:102C500013E0311B491E0A20FFF7C4FFB8FBF0F157
:102C6000B1FBF5F005FB101207EBC4003032C0B227
:102C70004946FFF7BFFF641CE4B2B442E9D3BDE8A4
:102C8000F08710B5FDF74AFD002010BD0020704709
:102C900000B591B005A101A800F0E8FE42F2107263
:102CA0000DA101A800F034F911B000BD41542B4D25
:102CB000515454434F4E4E3D302C226D71747473F9
:102CC0002E6865636C6F7564732E636F6D222C3193
:102CD0003838332C310D0A004F4B000010B5E2B0EC
:102CE0000B4602460FA102A800F0C0FE02A8FDF7A5
:102CF0009BFA009016A31AA21CA122A800F0B6FE0F
:102D000042F21074224628A122A800F001F910B165
:102D1000022062B010BD224624A102A800F0F8F8FB
:102D2000F7E700007B226964223A22313233222CF9
:102D300022706172616D73223A7B222573223A7B85
:102D40002276616C7565223A25647D7D7D000000E8
:102D500073746D33325F73656E736F7200000000C1
:102D6000577A6C55344851565979000041542B4DCF
:102D70005154545055425241573D302C22247379BE
:102D8000732F25732F25732F7468696E672F7072E8
:102D90006F70657274792F706F7374222C25642C98
:102DA000312C300D0A0000003E0000004F4B0000A7
:102DB00000B5C1B00748009007A30AA20DA101A861
:102DC00000F054FE42F2107215A101A800F0A0F824
:102DD00041B000BD44730008577A6C5534485156D1
:102DE0005979000073746D33325F73656E736F725F
:102DF0000000000041542B4D51545455534552434B
:102E000046473D302C312C222573222C222573225B
:102E10002C222573222C302C302C22220D0A00006B
:102E20004F4B000000B5A1B006A30AA20CA101A857
:102E300000F01CFE43F6982217A101A800F068F8E4
:102E400021B000BD73746D33325F73656E736F7242
:102E500000000000577A6C553448515659790000EB
:102E600041542B4D5154545355423D302C22247320
:102E700079732F25732F25732F7468696E672F70F0
:102E8000726F70657274792F706F73742F726570C2
:102E90006C79222C310D0A004F4B000000B5A1B017
:102EA00006A30AA20CA101A800F0E0FD43F69822B7
:102EB00016A101A800F02CF821B000BD73746D3389
:102EC000325F73656E736F7200000000577A6C5545
:102ED000344851565979000041542B4D51545453A4
:102EE00055423D302C22247379732F25732F25737F
:102EF0002F7468696E672F70726F70657274792FA6
:102F0000736574222C310D0A000000004F4B000045
:102F10002DE9F04180460E461546B8F1000F0BD062
:102F2000FFF7AFFEFDF7C8FB0746FEF74DF9044675
:102F3000404600F029F818E00220BDE8F081314653
:102F40003846FDF75FF908B10020F6E70AA13846D8
:102F5000FDF758F920B90AA13846FDF753F908B131
:102F60000220EAE70A20FEF715F8FEF72DF9001B0C
:102F7000A842E4D30120E0E74552524F520000003E
:102F80004641494C00000000FDF7A2BB08B50749C7
:102F90004FF4FA520968B1FBF2F14143009100BFCE
:102FA0000098411E0091FAD208BD00006000002088
:102FB0000EB5294C00216160002004F13E0525F882
:102FC0001010401C0428FADB2170234E383630885C
:102FD00060802078626835F81010511A72881144A8
:102FE000616025F81020401C00F00300207060781C
:102FF000042801D2401C60706078B1FBF0F080B210
:103000003188ADF80010FFF77BFD0190B088FFF725
:10301000FFFB0290BDF800006188884201D2091AC6
:1030200000E0411A89B26080642801D3322903D9B3
:10303000606B01F053FA0BE0642300226946E06AFA
:1030400001F0EAF8642300226946206B01F0E4F8FD
:10305000142001F02FF8BCE704000020044C0121EB
:103060002046FEF7A1F8C82001F024F8F7E7000099
:10307000000801400EB543F6982001F01BF831A07E
:1030800000F0E4FCFFF702FE10B934A000F0DEFC13
:1030900039A000F0DBFCFFF78BFE002817D00128D9
:1030A00019D03CA000F0D2FC41A000F0CFFCFFF70B
:1030B000EFFD002813D0012815D045A000F0C6FC74
:1030C0004AA000F0C3FCFFF7ADFE80B112E04FA0B4
:1030D00000F0BCFCE8E754A000F0B8FCE4E759A01D
:1030E00000F0B4FCECE75EA000F0B0FCE8E763A001
:1030F00000F0ACFC65A000F0A9FCFFF7CFFE10B912
:103100005EA000F0A3FC694C4FF0FF3668A76BA5EA
:10311000334600226946206B01F00AF868B901982D
:10312000FDF756F981B23846FFF7D8FD0298FDF752
:103130004FF981B22846FFF7D1FD0A2000F0BAFF0F
:10314000E4E70000E5889DE5A78BE58C964F6E656A
:103150004E65742E2E2E0D0A000000004F6E654E37
:103160006574E5889DE5A78BE58C96E68890E58AF1
:103170009F200D0A00000000E9858DE7BDAE4D518E
:103180005454E794A8E688B7E4BFA1E681AF2E2E99
:103190002E0D0A004D515454E794A8E688B7E985EE
:1031A0008DE7BDAEE5A4B1E8B4A50D0A00000000AE
:1031B000E8BF9EE68EA54F6E654E6574204D515456
:1031C00054E69C8DE58AA1E599A82E2E2E0D0A00C5
:1031D0004F6E654E6574204D515454E8BF9EE68E87
:1031E000A5E5A4B1E8B4A50D0A000000E8AEA2E987
:1031F0009885E5B19EE680A7E5938DE5BA94E4B89D
:10320000BBE9A2982E2E2E0D0A0000004D515454F9
:10321000E794A8E688B7E9858DE7BDAEE68890E536
:103220008A9F0D0A000000004D515454E794A8E60F
:1032300088B7E9858DE7BDAEE8B685E697B60D0A95
:10324000000000004F6E654E6574204D515454E8E7
:10325000BF9EE68EA5E68890E58A9F0D0A000000D5
:103260004F6E654E6574204D515454E8BF9EE68EF6
:10327000A5E8B685E697B60D0A000000E8AEA2E91B
:103280009885E68890E58A9F0D0A0000E8AEA2E9DD
:103290009885E5B19EE680A7E8AEBEE7BDAEE4B88E
:1032A000BBE9A2982E2E2E0D0A000000040000207B
:1032B00074656D7065726174757265006265616DCB
:1032C000000000000EB54FF0FF35174C22E02946F4
:1032D000E06800F0D9FF0121BDF800200423084672
:1032E000FFF7AEFC0198FDF773F8024604230121B5
:1032F0000320FFF7A5FC0298FDF76AF802460423B5
:1033000001210520FFF79CFCE06801F037F80A2056
:1033100000F0D0FE2B4600226946E06A00F008FF6C
:103320000028F4D1D3E70000040000200D4D4FF435
:103330007A764FF0FF370C4C0CE000220221284631
:10334000FDF73AFF304600F0B5FE01220221284683
:10335000FDF732FF3946606B01F034F80028F9D1EF
:10336000EBE7000000080140040000208EB01822A6
:1033700038A108A8FCF722FF08A8FCF755FF82B285
:10338000642308A93948FFF755F84FF4FA6000F0B4
:1033900091FE37A000F05AFB3B48FDF7E7F928B152
:1033A0003AA000F053FB002002F068FA43A000F0BE
:1033B0004DFB0120FDF72AFA00282AD001282CD045
:1033C00045A000F043FB4AA000F040FBFDF7B6F932
:1033D000002826D0012828D04BA000F037FB4FA0B2
:1033E00000F034FBFDF72CFAC0B2002821D00128F0
:1033F00023D050A000F02AFB5BA1684600F036FB0A
:1034000040F6B8325BA16846FDF7C4F9002818D031
:103410001AE059A000F01AFBD5E75EA000F016FBF9
:10342000D1E762A000F012FBD9E766A000F00EFB26
:10343000D5E769A000F00AFBDEE76DA000F006FB0F
:10344000DAE770A000F002FB42F21074204600F0B0
:1034500031FEFBE7576966695F5461736B206973DE
:103460002072756E6E696E670D0A000060010020A3
:10347000E5889DE5A78BE58C964553503832363666
:103480002E2E2E0D0A000000A801002045535038B2
:10349000323636E5889DE5A78BE58C96E5A4B1E844
:1034A000B4A528E9A9B1E58AA8E58685E983A8E954
:1034B0009499E8AFAF290D0A000000004553503839
:1034C000323636E5889DE5A78BE58C96E68890E553
:1034D0008A9F200D0A00000053746174696F6EE6C4
:1034E000A8A1E5BC8FE99499E8AFAF0D0A000000F0
:1034F000E6ADA3E59CA8E9858DE7BDAE4448435001
:103500002E2E2E0D0A0000004448435020E8BF9E96
:10351000E68EA5E5A4B1E8B4A50D0A00E6ADA3E5E5
:103520009CA8E8BF9EE68EA520576946692E2E2EE0
:103530000D0A00005769466920E8BF9EE68EA5E5A2
:10354000A4B1E8B4A528E5AF86E7A081E99499E89D
:10355000AFAFE68896E69CAAE6909CE588B0E78344
:10356000ADE782B9290D0A0041542B434946535215
:103570000D0A00004F4B000053746174696F6EE6D2
:10358000A8A1E5BC8FE8AEBEE7BDAEE68890E58AAF
:103590009F0D0A0053746174696F6EE6A8A1E5BCC3
:1035A0008FE8B685E697B60D0A0000004448435000
:1035B00020E8BF9EE68EA5E68890E58A9F210D0A49
:1035C000000000004448435020E8BF9EE68EA5E876
:1035D000B685E697B60D0A005769466920E8BF9E92
:1035E000E68EA5E68890E58A9F210D0A000000007E
:1035F0005769466920E8BF9EE68EA5E8B685E6973E
:10360000B60D0A00495020E59CB0E59D80E69FA5D7
:10361000E8AFA2E68890E58A9F0D0A0010B54FF04A
:10362000E020006902F0DAFF012803D0BDE8104075
:1036300002F0D4BA10BD30B593B0282109A8FCF728
:10364000D6FD142104A8FCF7D2FD002400940194B7
:10365000029403940121099108040A900B940D919E
:103660000225109511904FF4E010129009A8FEF772
:1036700041FA08B1FDF750F80F2004900595069423
:103680004FF4806007900894022104A8FEF71EF909
:1036900008B1FDF741F800954FF4004002906846EC
:1036A000FEF78EF8002801D0FDF736F813B030BDD4
:1036B000704700000148FEF73ABC0000F00100200E
:1036C000F0B50268194C1A4D1A4E4FF08047A042CF
:1036D00005D0B84203D0A84201D0B04203D122F0B5
:1036E00070034A681A43A04205D0B84203D0A842EA
:1036F00001D0B04203D122F44073CA681A434B6927
:1037000022F080021A4302608A68C2620A688262FA
:10371000A04201D109690163012141610169C90721
:1037200003D0016921F001010161F0BD002C0140CD
:10373000000400400008004010B5406A0021C18527
:10374000C184FEF79FFC10BD01680C3151E8002FC9
:1037500022F4907241E80023002BF5D10168143166
:1037600051E8002F22F0010241E80023002BF5D19F
:10377000016B012909D101680C3151E8002F22F0B9
:10378000100241E80023002BF5D1202180F84210DF
:1037900000210163704710B50168CA6822F0400239
:1037A000CA60202180F84110FEF79BFE002010BD6A
:1037B00008B590F84210222901D0022008BD826885
:1037C0004FF480539A4201D1016921B1816A9A4232
:1037D0001DD052B10BE0816A02685268C2F3080240
:1037E0000A80816A891C816209E002697AB10268F3
:1037F000526802F07F020A70816A491C8162C18DA1
:10380000491E0904090CC18505D0002008BD0268C5
:1038100052680A70F0E70168CA6822F02002CA60A4
:103820000168CA6822F48072CA6001684A6922F09D
:1038300001024A61202180F8421000214163026B9D
:10384000012A03D0FEF7E0FD002008BD01630168F6
:103850000C3151E8002F22F0100241E80023002B28
:10386000F5D101680A68D20602D50A684968009154
:10387000818DFEF706FCE7E770B504462068016914
:10388000E26821F4405111430161A16820690143BC
:10389000606901432068C26841F20C639A430A439D
:1038A000C26020684169A26921F4407111434161FD
:1038B0001E492068884202D1FEF7E6F801E0FEF7D3
:1038C000D3F800EBC00101EB0010616864228900AD
:1038D000B0FBF1F3B3FBF2F36FF018067343B0FBE8
:1038E000F1F5B0FBF1F605EB8305322303EB05158B
:1038F000B5FBF2F5B6FBF2F605F0F00505EB0615A3
:10390000B0FBF1F6B0FBF1F0B0FBF2F06FF0180194
:10391000484306EB800003EB0010B0FBF2F0216897
:1039200000F00F002844886070BD0000003801409E
:1039300081628285C28500214164222180F8421083
:103940000169002904D00168CA6842F48072CA6023
:1039500001684A6942F001024A610068C16841F0A9
:103960002001C1600020704790F84110212901D04A
:10397000022070478168B1F5805F01D1016961B1B2
:10398000016A4A1C0262026809785160C18C491EB2
:103990000904090CC1840AD013E0016A026809888D
:1039A000C1F308015160016A891C0162EEE70168F8
:1039B000CA6822F08002CA600068C16841F0400114
:1039C000C160002070472DE9F84304460D461746B4
:1039D0009846089E25E0701C23D0FDF7F5FBA0EB70
:1039E0000800B0421BD8D6B12068C168490718D575
:1039F000802D16D0402D14D00168C943090710D47A
:103A0000002521680968406800902046FFF79CFE69
:103A10000820606484F840500120BDE8F88303204A
:103A2000FBE72068006835EA000004D00020B842B7
:103A3000D1D00020F1E70120F9E700000148FEF7AE
:103A400023BB0000A8010020FEE700000FB4054BD7
:103A500010B503A9044A029800F06CF810BC5DF898
:103A600014FB0000F93C0008E40000200FB4084BF0
:103A700010B504A902AA039800F05CF8044602A954
:103A8000002000F033F9204610BC5DF814FB000064
:103A9000ED3C00084100080218BF04200A0E18BFC0
:103AA00040F001004FF07F4232EA010108BF40F0D0
:103AB0000200012808BF052070470907090E0028E9
:103AC00004DB00F1E02080F80014704700F00F00E4
:103AD00000F1E02080F8141D704700214FF07E5067
:103AE000FCF733BC0121FCF7D4BCFCF7A4BB0021DC
:103AF0000846FCF72ABC61214FF0E040FCF7C9BC46
:103B00006FF05E010807FCF7C4BC02E008C8121F92
:103B100008C1002AFAD170477047002001E001C1B6
:103B2000121F002AFBD1704701490860704700004E
:103B3000E80000202DE9FF4F8BB09A460F4605465E
:103B4000002606E025280BD052460D9990476D1CA3
:103B5000761C28780028F5D10FB03046BDE8F08FEC
:103B60000024A0460122604900E0044315F8013F0B
:103B7000203B02FA03F00842F7D128782E2817D10B
:103B800015F8010F44F004042A280ED06FF02F021C
:103B90002878A0F1300109290AD808EB880102EB46
:103BA000410100EB01086D1CF2E757F8048B6D1C16
:103BB000287869283ED006DC0028CDD063280BD0B9
:103BC000642804D136E0732810D075284BD05246B3
:103BD0000D999047761C85E017F8040B8DF80000CE
:103BE00000208DF80100E946012003E057F8049B0E
:103BF0004FF0FF3061074FF0000401D40AE0641C6D
:103C000044450DDA8442FADB19F804100029F6D194
:103C100006E0641C8442FCDB19F804100029F8D18A
:103C2000264404E019F8010B52460D999047641E92
:103C3000F8D257E001CF4FF00A0B002802DA4042D9
:103C40002D2102E0210504D52B218DF8241001211E
:103C500003E0E10705D02021F7E70DF120090891E5
:103C60000CE00021F9E701CF4FF00A0BF9E75946C4
:103C7000FCF7C2FB01F1300209F8012D0028F6D152
:103C8000ADEB090000F1200B600701D44FF00108F3
:103C9000D84502DDA8EB0B0000E0002080460024A0
:103CA00006E009A85246005D0D999047641C761CF9
:103CB00008988442F5DB04E0302052460D99904785
:103CC000761CB8F10001A8F10108F5DC05E019F84F
:103CD000010B52460D999047761CBBF10001ABF1E8
:103CE000010BF4DC6D1C34E7092801000A68531C41
:103CF0000B6010707047000013B54FF47A73012207
:103D000069460248FEF796FB00981CBD6001002042
:103D10002DE9F0410026A0F50001B1F1FE4F7DD262
:103D200000F500226FF07E0101EBE251C2F3025474
:103D300077184FF07E52A0EBC15602EB045557EABC
:103D4000040047D029463046FCF775FA80462946DC
:103D50003046FCF7C2FA4146FCF7F7FA0546014641
:103D6000FCF7C1FA80464A49FCF7BDFA4949FCF71D
:103D700062FA064641462846FCF7B5FA3146FCF79A
:103D8000B2FA06463846FCF790FB07464249FCF774
:103D9000AAFA4249794451F82410FCF74CFA31460A
:103DA000FCF749FA06463E492846FCF79CFA31469C
:103DB000FCF741FA054638463A49FCF794FA3A4985
:103DC000794451F82410FCF736FA2946BDE8F04151
:103DD000FCF731BA4FF07E513046FCF77EFA0546CB
:103DE0003249FCF780FA3249FCF725FA2946FCF7FC
:103DF0007AFA3049FCF71FFA2946FCF774FA2E4983
:103E0000FCF719FA044629460846FCF76CFA2146E5
:103E1000FCF769FA04462949284600E00EE0FCF761
:103E200062FA2146FCF707FA044625492846FCF7C2
:103E30005AFA2146BDE8F041FCF7FDB94FF07F4248
:103E4000B2EB400F03D2BDE8F041FFF74BBEB0F13B
:103E5000FF4F08BFBDE8F081B0F1004F06D9012047
:103E6000FFF762FEBDE8F041FFF741BE30F00041D0
:103E700005D06FF016061721FCF70BFB50E7022068
:103E8000FFF752FEFFF729FE80F00040BDE8F08109
:103E9000DE02323E3B3D943EFC849A36983300006D
:103EA000D95B5E3F00209A3E4C330000924FA93D03
:103EB0007279DEBD2D3E143ED85B5EBE157B4B3C59
:103EC0000000D83E2DE9F0410026A0F50001B1F137
:103ED000FE4F7DD200F500226FF07E0101EBE25132
:103EE000C2F3025477184FF07E52A0EBC15602EB9A
:103EF000045557EA040047D029463046FCF79BF9A1
:103F0000804629463046FCF7E8F94146FCF71DFAA1
:103F100005460146FCF7E7F980464549FCF7E3F919
:103F20004449FCF788F9064641462846FCF7DBF988
:103F30003146FCF7D8F906463846FCF7B6FA07468C
:103F40003D49FCF7D0F93D49794451F82410FCF77C
:103F500072F93146FCF76FF9064601212846FCF755
:103F600098FA3146FCF767F9054638463449FCF7BC
:103F7000BAF93449794451F82410FCF75CF9294620
:103F8000BDE8F041FCF757B94FF07E513046FCF7E1
:103F9000A4F905462C49FCF7A6F92C49FCF74BF986
:103FA0002946FCF7A0F92A49FCF745F92946FCF710
:103FB0009AF96FF08241FCF73EF90446294608461B
:103FC000FCF791F92146FCF78EF90146284600E0FE
:103FD00003E0BDE8F041FCF72EB94FF07F42B2EBB1
:103FE000400F03D2BDE8F041FFF77CBDB0F1FF4FB9
:103FF00008BFBDE8F081B0F1004F06D90120FFF7FE
:1040000093FDBDE8F041FFF772BD30F0004105D0EF
:104010006FF016061721FCF73CFA5BE70220FFF76A
:1040200083FDFFF75AFD80F00040BDE8F0810000FD
:1040300066F1CC3EAAAA2A3FF4FD053824320000DE
:104040000070313FD831000021ED423E0A1180BEA0
:10405000C1ABAA3EFDF782FAFFF7EDFAFEF7C2FC0C
:10406000FEF754FCFEF714FCFEF710FDFEF72AFDE8
:10407000FDF736FBFEF79CFD00F02AF80322064907
:104080000648FCF767FDFEF74FFC05A0FFF7DEFCD6
:1040900000F032F8FEE700003C000020EC000020B9
:1040A000E5889DE5A78BE58C96E5AE8CE6AF95207F
:1040B0000D0A000010B5EFF30581002902D06FF062
:1040C000050403E0002408B101F0B0FB204610BD58
:1040D000EFF30580002802D06FF005007047054817
:1040E000016811B14FF0FF307047012101600020DD
:1040F00070470000B400002010B5EFF305800028E1
:1041000002D06FF0050010BD07480168012902D0F8
:104110004FF0FF3010BD054A0021117002210160EF
:1041200001F084FC002010BDB40000201FED00E071
:10413000F8B51D466FF003036FF002064FF0000460
:10414000EFF30582C2B108B101B10DB11C4621E007
:10415000002200926A4602F06FF8012801D034462E
:1041600018E00098B0B10C494FF080500860BFF3E0
:104170004F8FBFF36F8F0DE048B141B12A4601F078
:10418000BDFF012806D025B16FF0010402E01C46F6
:1041900000E034462046F8BD04ED00E0F8B51446D2
:1041A0004FF00005EFF30582002A33D190B389B3B5
:1041B000521EB4B1A3685BB1E668502E08D32669DD
:1041C00036B1676900FB01F6B74201D3012209E06D
:1041D00043B9E36833B9236923B9636913B900228A
:1041E00000E00022012A01D042B10BE0002200923F
:1041F000A368226901F083FD054603E0002201F077
:104200005CFD054635B10CB1216800E0002128466F
:1042100001F0A8FA2846F8BDF8B51D466FF0030373
:104220006FF002064FF00004EFF30582CAB108B147
:1042300001B10DB11C4623E00022009200236A4622
:1042400001F08CFE012801D0344619E00098B8B185
:104250000C494FF080500860BFF34F8FBFF36F8F52
:104260000EE050B149B100232A4601F0C5FD0128F6
:1042700006D025B16FF0010402E01C4600E0344690
:104280002046F8BD04ED00E02DE9F04102460D4660
:1042900022F0010002F001014FF00004EFF305826B
:1042A0000AB1A41F1BE060B16FF001066FF00207B6
:1042B00061B1294602F0CCF8012810D025B134466E
:1042C0000DE06FF003040AE03C4608E0294602F0E6
:1042D00001F8012803D00DB1344600E03C462046E9
:1042E000BDE8F08170B504464FF00005EFF305809E
:1042F00088BB0CB1606800E00020C10701D0012636
:1043000000E00026000737D44FF0FF305CB1A16811
:1043100021B1E268502A01D3012005E021B9E1680A
:1043200011B9002000E00020012801D068B117E099
:104330002EB10420A16801F0B2FC054610E0012076
:10434000A16801F0ACFC05460AE02EB1042001F0A2
:104350009AFC054604E00FE0012001F094FC0546BC
:1043600035B10CB1216800E00021284601F0FAF9CE
:1043700015B10EB145F00105284670BD70B5014676
:1043800021F0010001F001014FF00004EFF305827C
:104390000AB1A41F14E040B16FF0020541B101F071
:1043A0008CFE01280CD02C460AE06FF0030407E0D5
:1043B00000231A46194601F01FFD012800D02C46A3
:1043C000204670BDF8B50D460024221F561C00285B
:1043D00005D0EFF30581C1B11DB114461FE01446AD
:1043E0001DE0002100916A4601F026FF012801D05E
:1043F000344614E0009890B10A494FF080500860AC
:10440000BFF34F8FBFF36F8F09E0294601F062FFC2
:10441000012804D015B16FF0010400E034462046B5
:10442000F8BD000004ED00E0F8B50E4614464FF06C
:104430000005EFF3058100294DD1B8B386424AD873
:104440004A1E5CB1A36823B1E168502901D301225F
:1044500005E023B9E16811B9002200E00022511CF7
:1044600039D0012809D0012A2BD0314601F0CCFBEC
:104470000546DDB15CB321682AE0012A17D003228A
:104480000021012001F019FC0546002DF1D0002E7D
:10449000EFD000231A461946284601F0ADFC01284A
:1044A000E7D0284601F070F90025E2E713E0032089
:1044B0000090002211460120A36801F020FC05466F
:1044C000E3E73146A26801F0BDFB0546D1E70021D4
:1044D000284601F047F92846F8BD000038B5002409
:1044E000E51E00280BD0EFF30581B1B1002100914A
:1044F000694601F093FD012804D02C4615E06FF0C9
:10450000030412E0009880B109494FF08050086020
:10451000BFF34F8FBFF36F8F07E000231A46194692
:1045200001F06AFC012800D02C46204638BD00006E
:1045300004ED00E02DE9FF470B464FF00008CDF8F1
:104540000C80EFF3058199BB90B3802618240025D9
:10455000691E72B3176807B13D46976907B13C46BB
:10456000671E382F02D21779FF0703D0002004B04E
:10457000BDE8F087576907B1BE08D2F808C0BCF1A2
:10458000000F0CD0D2F80C90B9F15C0F07D3D2F821
:104590001090B9F1000F02D00FB101210BE0BCF176
:1045A000000F08D1D76837B9176927B9002102E091
:1045B0001BE0FFE70021012901D059B115E0916806
:1045C00012690291CDE900423246294601F0D2FF3C
:1045D00003900AE003A9CDE90041B2B2294601F0F7
:1045E00097FF012801D0CDF80C800398BFE70000A9
:1045F0002DE9F04D0E460023A0F5000C4FF00071A0
:10460000354684B002464FF07E5401EB45014FF031
:104610007F48BCF1FE4F80F09F81B1F1804FC0F028
:10462000DB81FE490144B1F5005F40F2A78200F54D
:104630008021C90C01F00F07C1F307117F39A2EBEC
:10464000C15501EB030B3846FBF72FFF6FF0030159
:10465000FBF71FFF4FF07E51FBF7EDFD0146029087
:104660002846FBF73AFE019028460299FBF7E3FD46
:1046700000F5006A6FF30B0A009051460298FBF7B1
:104680002CFE2946FBF7D7FD02904FF07E50009993
:10469000FBF75BFE014600900198FBF724FE00F556
:1046A00000656FF30B0528460299FBF71CFE02908C
:1046B00051462846FBF717FE0199FBF711FE0299B8
:1046C000FBF70BFE0099FBF70EFE01460190284612
:1046D000FBF7B1FD01460290FBF705FE8246D0498B
:1046E000FBF701FECF49FBF7A6FD5146FBF7FBFDAB
:1046F000824600212846FBF7CCFE009051460298E6
:10470000FBF7F1FD054600210198FBF7C2FE2946A3
:10471000FBF791FD824601460098FBF78CFD00F502
:1047200000656FF30B0529460098FBF7D6FD51464F
:10473000FBF781FD8246BC492846FBF7D4FD00907B
:10474000BA495046FBF7CFFD8246B9492846FBF7E8
:10475000CAFD5146FBF76FFD824601460098FBF704
:104760006AFD00F500656FF30B0529460098FBF71D
:10477000B4FD5146FBF75FFD8246AE48784450F8E1
:10478000371000EBC700019147684FEA0B10FBF7A9
:104790008CFE009039465046FBF74DFD2946FBF74D
:1047A0004AFD0199FBF747FD0099FBF744FD00F531
:1047B000006B6FF30B0B58460099FBF78EFD0199C8
:1047C000FBF78BFD2946FBF788FD3946FBF785FD96
:1047D0005146FBF785FD06F5006782466FF30B0730
:1047E00039463046FBF779FD002100900846FBF77B
:1047F0008BFE00F00C0639465846FBF774FD054663
:1048000020F00040B0F18B4F0ADDB8EB400F07D32A
:104810004FF08B4060F31E052F464FF0000A1FE05B
:1048200038460099FBF707FD5146FBF75CFD07464C
:1048300058460099FBF757FD3946FBF7FCFC8246CA
:1048400001462846FBF7F7FC00F500676FF30B07FE
:1048500039462846FBF741FD5146FBF7ECFC824602
:1048600031460C20FBF750FE51463846FBF7E3FC7F
:10487000FBF724FE06460511FBF717FE3946FBF74A
:104880002FFD5146FBF7D7FC07466B49FBF72BFD85
:104890006A49FBF7D0FC3946FBF725FD6849FBF771
:1048A000CAFC3946FBF71FFD0146664806F00F06B5
:1048B000784450F82600FBF716FD6349794451F817
:1048C0002610FBF7B8FC6149794451F82610FBF734
:1048D000B2FC05F17D01FC2908D22946FBF7D9FD80
:1048E00004B02146BDE8F04DFBF7FDBC05F1BF016A
:1048F000B1F5BF7F16D82946FBF7CBFD2146FBF764
:10490000F2FC0546B8EB450F1AD068000CD02846DB
:10491000FFF7C0F8042808BFFFF7F2F8284604B0F4
:10492000BDE8F08D002D0BDA0220FFF7FDF8FFF750
:10493000E7F80146204604B061F31E00BDE8F08DA3
:104940000220FFF7F1F8FFF7D6F80146204604B041
:1049500061F31E00BDE8F08DB1F1804F3CD300BF84
:1049600000F1FF41B1F1FE4F21D200BF20F0004223
:10497000C5F3C75110467F290DDB9729BFF651AE0D
:10498000C1F196014FF0010C0CFA01F1A1F1010CFB
:104990001CEA050F07D00120FFF7C6F804B0BDE8F8
:1049A000F04DFFF7A4B8294218BF294C39E6410061
:1049B0001CBF4FF08071B1EB400F09D91B21FBF7F1
:1049C00068FD02466FF01A0310F0004FCED128E6C2
:1049D000BCF1FE4F18D224E6B1F1007F0ED336F0C1
:1049E000004105D006F0004141F0FC552E46B7E7E6
:1049F000410018BFB8EB400F78D8B1E7B1F1807F24
:104A000038BFA5F50006ABD320F000416FF0FF4C96
:104A1000104C01EB0C03A3422FD31DE0001080C00B
:104A20007EE24C3EABAAAA3E00B038423BAA3842D6
:104A3000D49AB8BB102A0000FC596337C9FF753AF5
:104A40001872313DDC290000902900004429000043
:104A5000000080BFFFFF3F0025F000439C44A445B9
:104A60000BD3B0F17E5F18BF5FEA450C3ED0B1F1C9
:104A7000FF4F98BFB3F1FF4F05D904B03146BDE8F1
:104A8000F04DFFF732B8B0F1FF4F0FD0C5F3C7516B
:104A90007F2909DB972911DAC1F19601012202FA77
:104AA00001F14A1E2A4205D0002108E015F0004F0E
:104AB00055D128E0294218BF012100D1022110F56B
:104AC000000F14D020B3B0F1004F27D010F1814F68
:104AD0004ED04FF0FE41B1EB400F94BF01200020BB
:104AE000012101EBE571884239D10CE040E015F07D
:104AF000004F02D0012936D031E0012902BF3F48E2
:104B000004B0BDE8F08D4FF0FF4004B0BDE8F08D7B
:104B100015F000400ED104B0BDE8F08DB5F1FF4FA7
:104B20001DD015F5000F05D015F0004F14D009B1B8
:104B3000012907D00220FEF7F7FF04B0BDE8F04DD1
:104B4000FEF7CBBF0220FEF7EFFFFEF7C6FF04B073
:104B500080F00040BDE8F08D09B1012903D004B018
:104B60000020BDE8F08D04B04FF00040BDE8F08DAE
:104B700004B04FF07E50BDE8F08D00BF4FF07E5185
:104B8000FBF7ABFB05466FF00101FBF782FC1C490C
:104B9000FBF7A6FB2946FBF7A6FB4FF07C51FBF782
:104BA0009FFB074629460846FBF79DFB80F0004027
:104BB0003946FBF798FB824612492846FBF793FBE0
:104BC000074611495046FBF78EFB82460F4928469F
:104BD000FBF789FB5146FBF72EFB0546014638469D
:104BE000FBF729FB00F5006B6FF30B0B59463846BA
:104BF000FBF773FB2946FBF71EFBECE5000080FF8B
:104C0000ABAAAA3E00B0B8413BAAB841D49A38BB7F
:104C10002DE9F04104460F46134EF5683068001D3B
:104C200000F0A0FC601C07D137B13168BDE8F0414D
:104C3000091D0E4800F0E6BC2C4430684460AC42CC
:104C400006D23168B06B091DBDE8F04100F0C2BC6E
:104C50003168706B091D00F0BDFCB06A844200D25F
:104C6000B462BDE8F0810000640000207C090020EF
:104C700070B5044600F0D2FC1C4DA868401CA8602A
:104C8000286810B1686938B10CE02C60A868012868
:104C900008D100F0AFF905E02868E16AC06A8842EF
:104CA00000D82C60686A401C68626064E06A296908
:104CB000884200D928610E4900EB800001EB80009A
:104CC000211D00F09FFC00F0C9FC686900280CD091
:104CD0002868E16AC06A884207D206494FF08050CE
:104CE0000860BFF34F8FBFF36F8F70BD640000206B
:104CF000CC04002004ED00E038B500F08FFC104C2F
:104D00002068C8B90F4800F057FC0E48143000F076
:104D100053FC0C48E060143020610A4B0020F03B4B
:104D2000009003F1500210210A2000F0E8FF2060FB
:104D300010B105A100F016FDBDE8384000F08EBCB2
:104D4000A0000020800A0020546D72510000000075
:104D500070B50C4D0C4E11E000F060FCF068C468BA
:104D6000201D00F0FFFBA868401EA8606868401E78
:104D7000686000F073FC204600F053F86868002873
:104D8000EAD170BD640000206809002030B40B46F1
:104D9000026C002A0CD0C1681144C1608468A14231
:104DA00001D30168C160C16830BC1846FBF706BA80
:104DB00030BC70472DE9F041044617460026A56B2C
:104DC000226C002A10D0C7B1E068FBF7F7F9E16860
:104DD000206C091AE1602268914202D2A168081A87
:104DE000E060022F16D017E02068A8B9A06801F093
:104DF0006FFC06460020A0600EE06068FBF7DEF95D
:104E0000216C606808446060A168884204D320680F
:104E1000606001E005B16D1E6D1CA5633046BDE804
:104E2000F08110B5044694F8590000280BD00128F1
:104E300011D0022814D0502080F31188BFF34F8F77
:104E4000BFF36F8FFEE7206B00F01EFC2046BDE82D
:104E5000104000F019BC2046BDE8104000F014BC22
:104E600010BD416A002904D0006B0068C0F1380011
:104E700070470020704700000749CA681168002980
:104E800004D00021016019B1002070470121F9E729
:104E9000D068006870470000A00000204FF4205147
:104EA0000F48420706D0C01D20F007000C49411AE8
:104EB000C1F520510B4A10600023536001440839AA
:104EC00021F00701183A11604B600B600B1A436028
:104ED00001604068906050604FF000405061704742
:104EE00060110020D0000020074E4FF08054074D85
:104EF000FFF72EFF30680128FAD92C60BFF34F8FDF
:104F0000BFF36F8FF4E70000CC04002004ED00E055
:104F1000002808D0002181600160C16000231A468A
:104F2000194600F069BF704770B51D46049C002902
:104F300009D02260E06321640121204600F016FFC1
:104F400084F84C5070BD2460F4E72DE9F05F824690
:104F5000DDE90A590C9C0E4617469B46B900A5226E
:104F6000206BFBF73DF9206B7F1E00EB870020F0E4
:104F70000707780707D0502080F31188BFF34F8FC1
:104F8000BFF36F8FFEE74FF0000866B100202218D4
:104F9000315C82F83410315C11B1401C1028F6D31A
:104FA00084F8438001E084F83480382D00D337251D
:104FB000E562E564C4F85080201D00F008FB04F1B0
:104FC000180000F004FB2461C5F13800A0616462A0
:104FD000C4F8548084F858805A465146384600F048
:104FE000B3FA2060B9F1000F01D0C9F80040BDE864
:104FF000F09F000070B50024114D04EB840005EB18
:10500000800000F0D9FA641C382CF6D30D4800F06B
:10501000D3FA0C48143000F0CFFA0A48283000F0D8
:10502000CBFA08483C3000F0C7FA0648503000F090
:10503000C3FA0548034941631431816370BD000020
:10504000CC0400202C0900206400002030B5134956
:1050500000E011460A688242FBD34B685C18844228
:1050600003D140681844486008460D684468231816
:10507000AB420DD1094B183B1B689A4206D05268CF
:10508000224442600A681268026002E0036000E0A5
:105090000260814200D0086030BD0000D0000020D6
:1050A00070B50024416000610C4D91420AD8D11ABC
:1050B0008269914201D301240EE0011D286900F0AC
:1050C00089FA09E09A4203D2994201D3012403E00C
:1050D000011DE86800F07EFA204670BDA0000020A7
:1050E00010B5044600F09AFAA06B20B1002400F03D
:1050F000B5FA204610BD0124F9E710B5044600F0CA
:105100008DFAA06BE16B884201D1012400E00024FC
:1051100000F0A4FA204610BDF8B505460E46174823
:10512000C068C068C468201D00F01CFA94F828000C
:10513000410718D5A0692B46411932462046FFF792
:10514000AFFFA0B100200346014600902A4620464A
:1051500001F00EFC58B9502080F31188BFF34F8F37
:10516000BFF36F8FFEE720F0010084F82800216A6A
:1051700001B02046BDE8F04008470000A000002034
:1051800030B587B03C4D6EE00398002803DADDE9C6
:105190000420069990470398002864DB059C606909
:1051A00010B1201D00F0DEF902A800F0AFF80246B1
:1051B00003980A2857D2DFE800F00505052D334A89
:1051C00005052D3394F8280040F0010084F82800EC
:1051D0000498A169034601442046FFF761FF68B3C4
:1051E000216A2046884794F8280040073BD50020D4
:1051F00000900498A169002342181946204601F046
:10520000B7FBD8B9502080F31188BFF34F8FBFF39D
:105210006F8FFEE714F8280F20F00100207022E0C5
:1052200094F8280040F0010084F828000498A06158
:1052300028B1811813462046FFF732FF13E05020B3
:1052400080F31188BFF34F8FBFF36F8FFEE794F8A1
:105250002800810703D4204600F016FA03E020F06E
:10526000010084F82800002203A9286800F046FF06
:10527000002889D107B030BDA0000020F8B506464F
:105280000D4600F01BFC684600F040F8044600980C
:1052900010B101F0D5FAF8BD45B9A64206D801F023
:1052A000CFFA21463046FFF737FFF8BD0C481DB155
:1052B0000169096891B10025311B2A46006800F098
:1052C00091FA01F0BDFA0028EFD106494FF0805065
:1052D0000860BFF34F8FBFF36F8FF8BD0125EBE779
:1052E000A000002004ED00E00748416B0968002998
:1052F00005D0416BC968C9684968816270474FF041
:10530000FF318162704700006400002070B50546DF
:1053100001F072F90446074EB068844204D200F0EE
:105320000BF80120286001E000202860B4602046CE
:1053300070BD0000A0000020F8B51A4E20E0C06843
:105340000568C468201D00F00DF9216A20468847D1
:1053500094F82800400713D5A0692844A84206D92C
:1053600060602461211DF06800F034F908E000203D
:105370000346014600902A46204601F0F9FA40B162
:10538000F06801680029DAD1F0683169F1603061B4
:10539000F8BD502080F31188BFF34F8FBFF36F8F9C
:1053A000FEE70000A000002009484068401C07D02C
:1053B000502080F31188BFF34F8FBFF36F8FFEE74C
:1053C000502080F31188BFF34F8FBFF36F8FFEE73C
:1053D000D800002008B56846FFF74EFD0099FFF79A
:1053E0004DFFFFF7CDFEF6E72DE9F041044600F052
:1053F00015F994F9455004F1240609E0606A48B1B2
:10540000304601F0E1F908B100F088FA6D1E6DB286
:10541000002DF3DC4FF0FF3684F8456000F01EF9F4
:1054200000F0FCF894F9445004F1100709E02069F9
:1054300048B1384601F0C8F908B100F06FFA6D1EA6
:105440006DB2002DF3DC84F84460BDE8F04100F05B
:1054500005B900002DE9F0410546002600F02EFBBD
:10546000324F386808B9FFF719FD786905424DD108
:105470008DB1083568070ED005F00700C0F10800AF
:105480000544680707D0502080F31188BFF34F8F81
:10549000BFF36F8FFEE7CDB37868854236D82349D6
:1054A00018310846046801E0214604466068A842B5
:1054B00002D220680028F7D13868844226D00E68CE
:1054C0000836206808606068411B10290ED96019F1
:1054D000420707D0502080F31188BFF34F8FBFF3EE
:1054E0006F8FFEE741606560FFF7B0FD6168786827
:1054F000401A7860BA68904200D2B8607869014377
:10550000616000202060F868401CF86001F098F9A4
:10551000700707D0502080F31188BFF34F8FBFF37F
:105520006F8FFEE73046BDE8F0810000B800002034
:1055300004490868002803D00868026D521C0265FF
:10554000086870476400002020384FF08073C36102
:1055500021F0010181610249416140F82029704731
:10556000A95300080169D0E901329A60D0E901230A
:105570005A604A68824201D182684A600022026110
:105580000868401E0860086870470000034B03600D
:1055900003F15C000860802010607047A80A0020BA
:1055A000044B036003F15C0008604FF480701060EE
:1055B00070470000040D002000F1080141604FF029
:1055C000FF328260C16001610021016070470021EB
:1055D0000161704730B50C68621C02D000F108020E
:1055E00002E0026904E01A4653681D68A542FAD930
:1055F00053684B6099608A60516008610168491C7A
:10560000016030BD42684A6093688B60936859605E
:10561000916008610168491C01607047502080F367
:105620001188BFF34F8FBFF36F8F0A494868401C42
:10563000486001280CD10848006810F0FF0F07D01F
:10564000502080F31188BFF34F8FBFF36F8FFEE7B9
:1056500070470000D800002004ED00E009494868C8
:10566000002806D0401E4860002801D180F3118830
:105670007047502080F31188BFF34F8FBFF36F8FB7
:10568000FEE70000D800002070B500282AD00838B6
:105690000446154D60686969084207D1502080F3BF
:1056A0001188BFF34F8FBFF36F8FFEE722683AB1C7
:1056B000502080F31188BFF34F8FBFF36F8FFEE749
:1056C0008843606000F0FAF96068696808446860BF
:1056D0002046FFF7BBFC2869401C2861BDE87040EC
:1056E00001F0AEB870BD0000B80000204FF0E0201F
:1056F00000210161816105494FF47A720968B1FBAB
:10570000F2F1491E416107210161704760000020EC
:1057100010B5FAF73DFD114910280ED300F1E02035
:1057200090F8F0030A78904207D2502080F3118855
:10573000BFF34F8FBFF36F8FFEE70948006889689A
:1057400000F4E060884207D9502080F31188BFF34D
:105750004F8FBFF36F8FFEE710BD0000D800002011
:105760000CED00E010B50022064B53F832401CB19E
:10577000521C082AF9D310BD43F8321003EBC201C2
:10578000486010BD8C04002010B50446002C0BD0DE
:10579000204600F013F894F8460000280CD120466B
:1057A000BDE81040FFF770BF502080F31188BFF3B1
:1057B0004F8FBFF36F8FFEE710BD00000021084A36
:1057C00002EBC1035B68834206D1002042F831003E
:1057D00002EBC10148607047491C0829F0D37047AB
:1057E0008C04002070B504460D461646FFF716FFE0
:1057F00094F944304FF000005B1C01D184F8440060
:1058000094F94510491C01D184F84500FFF726FFA3
:10581000A06B28B93246294604F1240000F09EF816
:105820002046BDE87040FFF7DFBD000010B502461E
:105830000020002A12D00F48006B38B1502080F3AE
:105840001188BFF34F8FBFF36F8FFEE700F036F97B
:1058500000211046FFF7DCF900F0F2FF002807D125
:1058600005494FF080500860BFF34F8FBFF36F8F33
:1058700010BD00006400002004ED00E070B5044697
:10588000FFF7CCFE1E4D04B92C68201DFFF76AFE01
:10589000A06A18B104F11800FFF764FE686A401CA2
:1058A00068622868844207D1211D1648FFF7AAFEC6
:1058B0006868401C686007E0A868401EA860204631
:1058C000FFF7AFFAFFF710FDFFF7C8FE6869002881
:1058D00014D02868844211D1286B38B1502080F34D
:1058E0001188BFF34F8FBFF36F8FFEE706494FF06C
:1058F00080500860BFF34F8FBFF36F8F70BD000003
:10590000640000206809002004ED00E002490A6AF2
:105910000260C968416070476400002001490120AD
:10592000C86170476400002010B50C4600280AD0FA
:10593000094909681831FFF74DFE2046BDE81040BF
:105940000121FFF765B9502080F31188BFF34F8F15
:10595000BFF36F8FFEE700006400002070B50D46B6
:10596000144600280DD00B4909681831FFF74AFE8C
:105970000CB14FF0FF3521462846BDE87040FFF7D7
:1059800047B9502080F31188BFF34F8FBFF36F8F5B
:10599000FEE700006400002070B50B4604460028B6
:1059A0003ED0226DA2B1E16C994200D21946E06A64
:1059B000884235D0012A33D11A4D2A6894420FD13A
:1059C000502080F31188BFF34F8FBFF36F8FFEE736
:1059D000502080F31188BFF34F8FBFF36F8FFEE726
:1059E000E162A269002A02DBC1F13801A1610E4E19
:1059F00000EB8000616906EB8000814210D1201D20
:105A0000FFF7B0FDE06A2969884200D9286100EB00
:105A1000800006EB8000211DBDE87040FFF7F2BD5D
:105A200070BD000064000020CC04002030B587B0B9
:105A300000250695059504AA05A906A8FFF7A6FD69
:105A4000DDE90510CDE900510290002317A11948A6
:105A5000049A00F08FFD184CE06208B1012000E0CC
:105A60000020012801D100F04FFF012809D0401C7F
:105A700019D1502080F31188BFF34F8FBFF36F8F80
:105A8000FEE7502080F31188BFF34F8FBFF36F8F75
:105A90004FF0FF30A06201206061E56007B0BDE813
:105AA000304000F047B807B030BD000049444C45D5
:105AB00000000000E94E0008640000200248016B6D
:105AC000491C0163704700006400002010B5174BAB
:105AD000186B002802D00120D86110BD0020D861C9
